:1000030075A0FE20B12712005930B1FD120059C26C
:10001300A10508E508C394084003E4F508AF087494
:1000230001A807088002C333D8FCF4F5A020B0D39D
:1000330012005930B0FD120059E508700575080724
:1000430080021508AF087401A807088002C333D8DB
:06005300FCF4F5A080ADF5
:040059007F647E0042
:04005D00EF4E6013EF
:10006100750902750AEFD50AFDD509FAEF1F70EC83
:010071001E70
:0300720080E92200
:0300000002007586
:0C007500787FE4F6D8FD75810A020003D4
:00000001FF
