:05001E0012000380FE4A
:03002300020026B2
:10002600C0E0C0F0C083C082C0D075D000C000C0A0
:1000360001C002C003C004C005C006C00730980A4C
:100046008599A0AF9912008FC298D007D006D00527
:10005600D004D003D002D001D000D0D0D082D0833B
:05006600D0F0D0E032F3
:04006B00EF4E6013E1
:10006F007508027509EFD509FDD508FAEF1F70EC79
:01007F001E62
:0300800080E922F2
:1000030075985043878053890F438920758BF37507
:0B0013008DF3C2ABD28ED2AFD2AC2274
:08008F008F993099FDC29922FE
:0300000002008378
:0C008300787FE4F6D8FD75810902001EAC
:00000001FF
