:06000300010900010800E4
:1000D9001200C620910575080180F8E4F50880F33F
:03000B0002009A56
:10009A00C0E0C0D0C28C758A33758CFFE509D39550
:1000AA00085004D2808002C2800509E509C3942859
:0C00BA004003750900D28CD0D0D0E03299
:1000C6005389F0438901758A33758CFFD2A9D28C86
:0300D600D2AF2284
:0300000002000EED
:0C000E00787FE4F6D8FD758109020055EA
:10001A000200D9E493A3F8E493A34003F68001F223
:10002A0008DFF48029E493A3F85407240CC8C333E7
:10003A00C4540F4420C8834004F456800146F6DFB6
:10004A00E4800B0102040810204080900003E47E43
:10005A00019360BCA3FF543F30E509541FFEE493AB
:10006A00A360010ECF54C025E060A840B8E493A372
:10007A00FAE493A3F8E493A3C8C582C8CAC583CA9D
:10008A00F0A3C8C582C8CAC583CADFE9DEE780BE55
:0100090000F6
:00000001FF
