:0402D200EF4E601378
:1002D6007514027515EFD515FDD514FAEF1F70ECE0
:0102E6001EF9
:0302E70080E92289
:10000300E4F5127590FFC2932097137F14FE12023A
:10001300D23097FD7F147E001202D2751201209612
:10002300147F147E001202D23096FD7F147E0012DC
:1000330002D27512052095147F147E001202D2306D
:1000430095FD7F147E001202D27512092094147F4D
:10005300147E001202D23094FD7F147E001202D26D
:1000630075120D7590FFC2922097147F147E0012B3
:1000730002D23097FD7F147E001202D27512022045
:1000830096147F147E001202D23096FD7F147E00F8
:100093001202D27512062095147F147E001202D22A
:1000A3003095FD7F147E001202D275120A2094143B
:1000B3007F147E001202D23094FD7F147E00120260
:1000C300D275120E7590FFC2912097147F147E0093
:1000D3001202D23097FD7F147E001202D2751203F2
:1000E3002096147F147E001202D23096FD7F147E78
:1000F300001202D27512072095147F147E0012029B
:10010300D23095FD7F147E001202D275120B20941B
:10011300147F147E001202D23094FD7F147E0012ED
:1001230002D275120F7590FFC2902097147F147E30
:10013300001202D23097FD7F147E001202D2751294
:10014300042096147F147E001202D23096FD7F1491
:100153007E001202D27512082095147F147E0012BD
:1001630002D23095FD7F147E001202D275120C204C
:1001730094147F147E001202D23094FD7F147E000B
:080183001202D2751210AF1236
:01018B002251
:0C02EA000A083F065B4F666D7D077F6FC2
:10021800EF14B40800505490022D75F003A4C58360
:1002280025F0C5837302024502024902024D02020B
:100238005102025502025D02026502026DD2A480DB
:100248000ED2A48012D2A48016D2A4801AC2A4D23C
:10025800A3D2A28016C2A4D2A3C2A2800EC2A4C2F4
:10026800A3D2A28006C2A4C2A3C2A2D3ED9409EC71
:0E02780064809480500774082DF8E6F580220B
:1002AE00E4FDFC7F011202181200038F18E518609E
:1002BE00F77F647E00120286E518FD7C007F011236
:0402CE00021880E4AE
:100286008E128F13E4F516F517C3E5179513E516C9
:1002960095125013B2957F017E001202D20517E522
:0802A6001770E6051680E22244
:0300000002018C6E
:0C018C00787FE4F6D8FD7581180201D3DD
:100198000202AEE493A3F8E493A34003F68001F2CD
:1001A80008DFF48029E493A3F85407240CC8C33368
:1001B800C4540F4420C8834004F456800146F6DF37
:1001C800E4800B01020408102040809002EAE47EDB
:1001D800019360BCA3FF543F30E509541FFEE4932C
:1001E800A360010ECF54C025E060A840B8E493A3F3
:1001F800FAE493A3F8E493A3C8C582C8CAC583CA1E
:10020800F0A3C8C582C8CAC583CADFE9DEE780BED5
:0102F6000007
:00000001FF
