:0E034A001203367B257D017F011202C080F573
:0502E500243F4480FFEE
:1002EA00C2A6C2A58F80D2A77F017E0012031EC2BA
:0802FA00A77F017E0002031E34
:04030200ED2430FFB7
:10030600D2A6C2A58F80D2A77F017E0012031EC28D
:08031600A77F017E0002031E17
:100336007F381202EA7F0C1202EA7F061202EA7F77
:04034600010202EAC4
:1002C0008F278D288B29E527B40108E528247FFF97
:1002D0001202EAE527B40208E52824BFFF1202EA69
:0502E000AF2902030636
:0A024D008F0F8D108B118A12891398
:10025700E50FB40109E510144480FF1202EAE50F27
:10026700B40205E5101202E5E4F514AB11AA12A9D0
:1002770013851482758300120003FF6007120306BB
:04028700051480E7F3
:01028B002250
:0D028C00E50D7F1024FFFDE434FFFC7E0033
:080299008E2C8F2D8C2E8D2F71
:1002A1007F017E00E4FBEBC3952FE52E6480F8749B
:0E02B1008098500AAC2CAD2D1200300B80E866
:0102BF00221C
:080200008F158D168A178B186B
:10020800E515B40109E516144480FF1202EAE51564
:10021800B40205E5161202E585191AE51AD3940009
:100228004022E51A7F0A120290AC17AD18CFCDCF45
:10023800CECCCE1200427C007D0A1200421203028C
:04024800151A80D72C
:01024C00228F
:0800CD008F1B8D1C8A1D8B1E88
:1000D500E51BB40109E51C144480FF1202EAE51B87
:1000E500B40205E51C1202E5C3E51D648094804059
:1000F500077F2B12030680107F2D120306C3E4959C
:100105001EF51EE4951DF51D851F20E520D39400E1
:10011500402BE52024FFFDE434FFFC7F0A7E00121E
:100125000299AC1DAD1ECFCDCFCECCCE1200977CA3
:0D013500007D0A120097120302152080CEF3
:01014200229A
:080143008F088D098A0A8B0B5D
:10014B00E508B40109E509144480FF1202EAE50849
:10015B00B40205E5091202E5850C0DE50DD39400FB
:10016B00403D12028CAC0AAD0BCFCDCFCECCCE1214
:10017B000042EF540FF50EC3940A501712028CACC9
:10018B000AAD0BCFCDCFCECCCE120042EF540F2405
:0F019B00308004E50E2437FF120306150D80BCDB
:0101AA002232
:0801AB008F218D228A238B2491
:1001B300E521B40109E522144480FF1202EAE52196
:1001C300B40205E5221202E5852526E526D394002F
:1001D300402AE52624FFFDE434FFFC7F027E001263
:1001E3000299AC23AD24CFCDCFCECCCE120042EFBB
:0C01F30054012430FF120306152680CFB3
:0101FF0022DD
:04031E00EF4E60132B
:10032200752A02752BEFD52BFDD52AFAEF1F70EC3B
:010332001EAC
:0303330080E9223C
:03000000020358A0
:0C035800787FE4F6D8FD75812F02034A7F
:10000300BB010CE58229F582E5833AF583E02250B2
:1000130006E92582F8E622BBFE06E92582F8E222FC
:0D002300E58229F582E5833AF583E4932216
:10003000EF8DF0A4A8F0CF8CF0A428CE8DF0A42EE4
:02004000FE229E
:10004200BC000BBE0029EF8DF084FFADF022E4CCA2
:10005200F875F008EF2FFFEE33FEEC33FCEE9DEC6B
:10006200984005FCEE9DFE0FD5F0E9E4CEFD22EDB1
:10007200F8F5F0EE8420D21CFEADF075F008EF2FFB
:10008200FFED33FD4007985006D5F0F222C398FDEC
:050092000FD5F0EA2289
:10009700C2D5EC30E709B2D5E4C39DFDE49CFCEE84
:1000A70030E715B2D5E4C39FFFE49EFE120042C3BA
:1000B700E49DFDE49CFC800312004230D507C3E4B5
:0600C7009FFFE49EFE22F3
:00000001FF
