:0B03E3004D61747269786B65793A0017
:1002FE001203B47BFF7A0379E37D017F0112032899
:10030E001200038F22E52260F7FB3395E0FA750C9D
:0A031E00027D027F0212036980E6EF
:04038600EF4E6013C3
:10038A00750902750AEFD50AFDD509FAEF1F70EC57
:01039A001E44
:03039B0080E922D4
:0603C800C2A58F80D2A740
:0803CE007F027EEFDEFEDFFC82
:0103D6002204
:0A03EE00C2A61203C8C2A70203CE84
:10034B00CFCDCFCECCCE1201CB7C007D0A1201CB10
:04035B00ED2430FF5E
:0A035F00D2A61203C8C2A70203CE03
:10039E00AE07BE0104ED148006BE0209ED243F44F3
:0603AE0080FF1203EE22A5
:1003B4007F381203EE7F0C1203EE7F061203EE7FEA
:0403C400010203EE41
:0A03F800AC0312039EAF0402035F82
:060328008B088A09890A16
:10032E0012039EE4FDAB08AA09A90A8D827583000B
:0C033E0012018CFF600612035F0D80E9C5
:01034A002290
:0C02CB007F0AEA24FFFDE434FFFC7E0003
:0802D7008E0D8F0E8C0F8D10AF
:1002DF007F017E00E4FBEBC39510E50F6480F8749B
:0E02EF008098500AAC0DAD0E1201B90B80E8DC
:0102FD0022DE
:040369008A0A8B0B66
:10036D0012039EAA0CEAD39400400D1202CBAC0AE4
:08037D00AD0B12034B1A80EDD9
:010385002255
:1002200012039EC3EA64809480400B7F2B12035F0D
:100230008A168B17800E7F2D12035FC3E49BF51780
:10024000E49AF516AA15EAD39400400D1202CBAC3D
:0902500016AD1712034B1A80EDE4
:010259002282
:04025A008A1A8B1B56
:10025E0012039EAA1CEAD3940040297F101202CDED
:10026E00AC1AAD1BCFCDCFCECCCE1201CBEF540FEF
:10027E00FEC3940AEE5004243080022437FF12038A
:04028E005F1A80D1A2
:010292002249
:040293008A1F8B2013
:1002970012039EAA21EAD394004028EA24FFFDE432
:1002A70034FFFC7F027E001202D7AC1FAD20CFCDFA
:1002B700CFCECCCE1201CBEF54012430FF12035F17
:0302C7001A80D2C8
:0102CA002211
:10000300E4F5087590FFC2932097137F14FE120343
:10001300863097FD7F147E001203867508012096B3
:10002300147F147E001203863096FD7F147E001227
:1000330003867508052095147F147E00120386300D
:1000430095FD7F147E001203867508092094147FA2
:10005300147E001203863094FD7F147E0012038603
:1000630075080D7590FFC2922097147F147E0012BD
:1000730003863097FD7F147E0012038675080220E5
:1000830096147F147E001203863096FD7F147E0043
:100093001203867508062095147F147E00120386CA
:1000A3003095FD7F147E0012038675080A20941490
:1000B3007F147E001203863094FD7F147E001203AA
:1000C3008675080E7590FFC2912097147F147E00E9
:1000D3001203863097FD7F147E0012038675080392
:1000E3002096147F147E001203863096FD7F147EC3
:1000F300001203867508072095147F147E001203EF
:10010300863095FD7F147E0012038675080B2094BC
:10011300147F147E001203863094FD7F147E001238
:10012300038675080F7590FFC2902097147F147E85
:10013300001203863097FD7F147E00120386750834
:10014300042096147F147E001203863096FD7F14DC
:100153007E001203867508082095147F147E001212
:1001630003863095FD7F147E0012038675080C20EC
:1001730094147F147E001203863094FD7F147E0056
:08018300120386750810AF0895
:01018B002251
:030000000203D721
:0C03D700787FE4F6D8FD7581220202FE5A
:10018C00BB010CE58229F582E5833AF583E0225028
:10019C0006E92582F8E622BBFE06E92582F8E22272
:0D01AC00E58229F582E5833AF583E493228C
:1001B900EF8DF0A4A8F0CF8CF0A428CE8DF0A42E5A
:0201C900FE2214
:1001CB00BC000BBE0029EF8DF084FFADF022E4CC18
:1001DB00F875F008EF2FFFEE33FEEC33FCEE9DECE1
:1001EB00984005FCEE9DFE0FD5F0E9E4CEFD22ED27
:1001FB00F8F5F0EE8420D21CFEADF075F008EF2F71
:10020B00FFED33FD4007985006D5F0F222C398FD61
:05021B000FD5F0EA22FE
:00000001FF
