:1003EF001204F61204FF1204B6EF604B1204FC8FD6
:1003FF001EE51EB41603E4F51FE51EB40C03751FAE
:10040F0001E51EB41803751F02E51EB45E03751FC8
:10041F0003E51F7004FF120502E51FB401057F32CB
:10042F00120502E51FB402057F46120502E51FB44F
:10043F0003057F64120502E51FFD7C007F01120397
:03044F008280A305
:04047A00EF4E6013CE
:10047E007522027523EFD523FDD522FAEF1F70ECFE
:01048E001E4F
:03048F0080E922DF
:0C04A9000A143F065B4F666D7D077F6FF5
:10038200EF14B40800505490039775F003A4C5838A
:1003920025F0C583730203AF0203B30203B702035E
:1003A200BB0203BF0203C70203CF0203D7D2A4805A
:1003B2000ED2A48012D2A48016D2A4801AC2A4D2D1
:1003C200A3D2A28016C2A4D2A3C2A2800EC2A4C289
:1003D200A3D2A28006C2A4C2A3C2A274142DF8E6BC
:0D03E200F5807F017E0012047AE4F5802290
:10001E00E4F5247590FFC2932097137F14FE12040B
:10002E007A3097FD7F147E0012047A752401209693
:10003E00147F147E0012047A3096FD7F147E001217
:10004E00047A7524052095147F147E0012047A30EC
:10005E0095FD7F147E0012047A7524092094147F76
:10006E00147E0012047A3094FD7F147E0012047AFE
:10007E0075240D7590FFC2922097147F147E001286
:10008E00047A3097FD7F147E0012047A75240220C4
:10009E0096147F147E0012047A3096FD7F147E0033
:1000AE0012047A7524062095147F147E0012047AA9
:1000BE003095FD7F147E0012047A75240A20941464
:1000CE007F147E0012047A3094FD7F147E00120499
:1000DE007A75240E7590FFC2912097147F147E00BE
:1000EE0012047A3097FD7F147E0012047A75240371
:1000FE002096147F147E0012047A3096FD7F147EB3
:10010E000012047A7524072095147F147E001204C1
:10011E007A3095FD7F147E0012047A75240B20949C
:10012E00147F147E0012047A3094FD7F147E001228
:10013E00047A75240F7590FFC2902097147F147E59
:10014E000012047A3097FD7F147E0012047A752413
:10015E00042096147F147E0012047A3096FD7F14CC
:10016E007E0012047A7524082095147F147E0012E6
:10017E00047A3095FD7F147E0012047A75240C20CB
:10018E0094147F147E0012047A3094FD7F147E0046
:08019E0012047A752410AF244D
:0101A6002236
:1004920053890F438910758B9C758DFFC28FD28E45
:0704A200D2ABD2AFC2B922B8
:0B04D000D288C289D2A8D2AFD2B822D5
:0604F6001200060204D012
:0D04B600E50F6006E4F50F7F01227F0022B4
:0D04C300E50D6006E4F50D7F01227F0022AB
:03001600AF0C220A
:0304FC00AF0B2221
:030003000201A750
:1001A700C0E0C0F0C083C082C0D075D000C000C01E
:1001B70001C002C003C004C005C006C007E508703F
:1001C7000EFFFE1204DB7F017E001204EF8049E57B
:1001D70008640170491204E68E098F0AE4FFFE12D3
:1001E70004DBD3E50A94C8E50994324010E50A9484
:1001F700B0E509943650067508020202DBD3E50A1A
:1002070094FEE50994294010E50A94E6E509942D42
:100217005006750D010202D27508010202DBE508DE
:10022700640260030202DB1204E68E098F0AE4FF10
:10023700FE1204DBD3E50A946CE5099402402CE531
:100247000A9454E50994065022E50E131313541F1C
:100257002410F8C000E6FFE50E5407FE7401A80657
:10026700088002C333D8FCF45F8034D3E50A94D600
:10027700E50994064030E50A94BEE509940A50263C
:10028700E50E131313541F2410F8C000E6FFE50E04
:100297005407FE7401A806088002C333D8FC4FD068
:1002A70000F6050E8006750E00750801E50EC3946D
:1002B700204021750E00E511F4B5100FE513F4B5D4
:1002C700120985100C85120B750F01E4FFFE12044D
:1002D700EF750800D007D006D005D004D003D002B0
:0F02E700D001D000D0D0D082D083D0F0D0E03280
:100006005389F0438901E4F58AF58CC28DC28C22AE
:0B04DB00AD07AC068C8CAF058F8A22A9
:0904E600AF8CEFFEAD8AEDFF22A0
:0704EF00EE4F24FF928C2266
:0304FF0002049262
:030502008F202225
:03001B000204528A
:10045200C0E0C0D0758B9C758DFF0521E521C3944A
:10046200644003752100E521C395205004D2908099
:0804720002C290D0D0D0E032AC
:030000000202F603
:0C02F600787FE4F6D8FD75812402033DFA
:100302000203EFE493A3F8E493A34003F68001F21F
:1003120008DFF48029E493A3F85407240CC8C333FC
:10032200C4540F4420C8834004F456800146F6DFCB
:10033200E4800B01020408102040809004A9E47EAE
:10034200019360BCA3FF543F30E509541FFEE493C0
:10035200A360010ECF54C025E060A840B8E493A387
:10036200FAE493A3F8E493A3C8C582C8CAC583CAB2
:10037200F0A3C8C582C8CAC583CADFE9DEE780BE6A
:0104B5000046
:00000001FF
