:0C0162000A080102030405630708090AEB
:10015000758920758DF4758BF4E4F587759850D208
:020160008E22ED
:07016F0012015012008F2263
:04011E007FE87E03F5
:10012200D3EF9400EE9400400DE4FD0DBD7DFCEF95
:060132001F70ED1E80EAC3
:0101380022A4
:1000DB0012011E7599AA3099FD3098FDE599B4BBB4
:1000EB00EFE4F512FC12011E74082CF8E6F59925C5
:1000FB0012F5123099FDC2990CBC0AE912011E854A
:10010B0012993099FDC2993098FDC298E599F46027
:03011B00D080FE93
:10008F00C2983098FDC298E599B4AAFB7599BB3018
:10009F0099FDC299E4F512FF3098FDC29874082FAC
:1000AF00F8A69974082FF8E62512F5120FBF0AE883
:1000BF003098FDC298E599B51209E4F5993099FD8C
:0B00CF00C299227599FF3099FDC2997B
:0100DA002203
:100139005389F0438901758A18758CFCC28DD28C5C
:07014900D2A9D2AFC2B92216
:03000000020003F8
:0C000300787FE4F6D8FD75811202004AF7
:10000F0002016FE493A3F8E493A34003F68001F297
:10001F0008DFF48029E493A3F85407240CC8C333F2
:10002F00C4540F4420C8834004F456800146F6DFC1
:10003F00E4800B0102040810204080900162E47EEE
:10004F00019360BCA3FF543F30E509541FFEE493B6
:10005F00A360010ECF54C025E060A840B8E493A37D
:10006F00FAE493A3F8E493A3C8C582C8CAC583CAA8
:10007F00F0A3C8C582C8CAC583CADFE9DEE780BE60
:01016E000090
:00000001FF
