:1002900012031212000E8F12E51264017028051667
:1002A000E516B40403E4F516E5167002F513E51639
:1002B000B40103751332E516B40203751346E5164F
:1002C000B40303751364E516FD7C007F011202235D
:0202D00080C1EB
:03000B000202D21C
:1002D200C0E0C0D0758A9C758CFF0514E514C394E8
:1002E200644003751400E514C395135004D2908042
:0802F20002C290D0D0D0E0322E
:0402FA00EF4E601350
:1002FE007518027519EFD519FDD518FAEF1F70ECA8
:01030E001ED0
:03030F0080E92260
:0C0329000A083F065B4F666D7D077F6F82
:10022300EF14B40800505490023875F003A4C5834A
:1002330025F0C583730202500202540202580202DF
:100243005C020260020268020270020278D2A48099
:100253000ED2A48012D2A48016D2A4801AC2A4D231
:10026300A3D2A28016C2A4D2A3C2A2800EC2A4C2E9
:10027300A3D2A28006C2A4C2A3C2A274082DF8E628
:0D028300F5807F017E001202FAE4F5802272
:100312005389F0438901758A9C758CFFC28DD28CFA
:07032200D2A9D2AFC2B9223B
:10000E00E4F5177590FFC2932097137F14FE12022A
:10001E00FA3097FD7F147E001202FA7517012096B2
:10002E00147F147E001202FA3096FD7F147E0012A9
:10003E0002FA7517052095147F147E001202FA300D
:10004E0095FD7F147E001202FA7517092094147F15
:10005E00147E001202FA3094FD7F147E001202FA12
:10006E0075170D7590FFC2922097147F147E0012A3
:10007E0002FA3097FD7F147E001202FA75170220E5
:10008E0096147F147E001202FA3096FD7F147E00C5
:10009E001202FA7517062095147F147E001202FACA
:1000AE003095FD7F147E001202FA75170A20941403
:1000BE007F147E001202FA3094FD7F147E0012022D
:1000CE00FA75170E7590FFC2912097147F147E005B
:1000DE001202FA3097FD7F147E001202FA75170392
:1000EE002096147F147E001202FA3096FD7F147E45
:1000FE00001202FA7517072095147F147E00120263
:10010E00FA3095FD7F147E001202FA75170B2094BB
:10011E00147F147E001202FA3094FD7F147E0012BA
:10012E0002FA75170F7590FFC2902097147F147EF8
:10013E00001202FA3097FD7F147E001202FA751734
:10014E00042096147F147E001202FA3096FD7F145E
:10015E007E001202FA7517082095147F147E001285
:10016E0002FA3095FD7F147E001202FA75170C20EC
:10017E0094147F147E001202FA3094FD7F147E00D8
:08018E001202FA751710AF17F9
:010196002246
:0300000002019763
:0C019700787FE4F6D8FD7581190201DEC6
:1001A300020290E493A3F8E493A34003F68001F2E0
:1001B30008DFF48029E493A3F85407240CC8C3335D
:1001C300C4540F4420C8834004F456800146F6DF2C
:1001D300E4800B0102040810204080900329E47E90
:1001E300019360BCA3FF543F30E509541FFEE49321
:1001F300A360010ECF54C025E060A840B8E493A3E8
:10020300FAE493A3F8E493A3C8C582C8CAC583CA12
:10021300F0A3C8C582C8CAC583CADFE9DEE780BECA
:0103350000C7
:00000001FF
