:0206A0002D002B
:1001B60012067D12069B1200037BFF7A0679A07D4C
:1001C600037F011205967BFF7A0679A07D067F01E3
:1001D6001205967BFF7A0679A07D037F02120596AB
:1001E6007BFF7A0679A07D067F02120596120252DF
:1001F600E519FB7A00750C027D017F01120549E5C0
:100206001AFB7A00750C027D047F01120549E51B75
:10021600FB7A00750C027D077F01120549E51CFB80
:100226007A00750C027D017F02120549E51DFB7AF5
:1002360000750C027D047F02120549E51EFB7A005B
:0C024600750C027D077F0212054980A1A3
:05062C00243F4480FFA3
:10063100C2A6C2A58F80D2A77F017E00120665C225
:08064100A77F017E000206659F
:04064900ED2430FF6D
:10064D00D2A6C2A58F80D2A77F017E00120665C2F9
:08065D00A77F017E0002066583
:10067D007F381206317F0C1206317F061206317F4C
:04068D00010206312F
:100609008F2C8D2D8B2EE52CB40109E52D144480FA
:10061900FF120631E52CB40205E52D12062CAF2E8A
:0306290002064D79
:0A0596008F088D098B0A8A0B890C6F
:1005A000E508B40109E509144480FF120631E508A5
:1005B000B40205E50912062CE4F50DAB0AAA0BA955
:1005C0000C850D827583001200ECFF600712064D4A
:0405D000050D80E7AE
:0105D4002204
:0D05D500E5177F1024FFFDE434FFFC7E00DD
:0805E2008E0E8F0F8C108D119D
:1005EA007F017E00E4FBEBC39511E5106480F8748B
:0E05FA008098500AAC0EAD0F1201190B80E86C
:0106080022CF
:080549008F088D098A0A8B0B53
:10055100E508B40109E509144480FF120631E508F4
:10056100B40205E50912062C850C0DE50DD39400A6
:100571004022E50D7F0A1205D9AC0AAD0BCFCDCFD4
:10058100CECCCE12012B7C007D0A12012B12064922
:04059100150D80D7ED
:010595002243
:08036B008F208D218A228B23D3
:10037300E520B40109E521144480FF120631E5208C
:10038300B40205E52112062CC3E522648094804063
:10039300077F2B12064D80107F2D12064DC3E49567
:1003A30023F523E49522F522852425E525D394001E
:1003B300402BE52524FFFDE434FFFC7F0A7E001279
:1003C30005E2AC22AD23CFCDCFCECCCE1201807CC3
:0D03D300007D0A120180120649152580CE1A
:0103E00022FA
:0803E1008F128D138A148B1595
:1003E900E512B40109E513144480FF120631E51240
:1003F900B40205E51312062C851617E517D39400E8
:10040900403D1205D5AC14AD15CFCDCFCECCCE1213
:10041900012BEF540FF518C3940A50171205D5ACE8
:1004290014AD15CFCDCFCECCCE12012BEF540F2466
:0F043900308004E5182437FF12064D151780BCDC
:010448002291
:0804A6008F268D278A288B297F
:1004AE00E526B40109E527144480FF120631E5263E
:1004BE00B40205E52712062C852A2BE52BD39400D2
:1004CE00402AE52B24FFFDE434FFFC7F027E001260
:1004DE0005E2AC28AD29CFCDCFCECCCE12012BEF7D
:0C04EE0054012430FF12064D152B80CF66
:0104FA0022DF
:04066500EF4E6013E1
:10066900750E02750FEFD50FFDD50EFAEF1F70EC61
:010679001E62
:03067A0080E922F2
:0906910007191505140F3232049B
:05069B00C2B5C2B62249
:0604490025F0FDEC3EFC75
:06044F008C088D09AB07CB
:10045500D2B5E4FD74017E00A805088005C333CE3E
:1004650033CED8F9FFEBF582EF558224FF92B4D253
:10047500B6C2B60DBD08DDE4FD74017E00A8050811
:100485008005C333CE33CED8F9FFE5085EFEE50916
:100495005F4E24FF92B4D2B6C2B60DBD08DBC2B51D
:0104A5002234
:0204FB00AD074B
:1004FD00E4F9430501D2B5FB74017E00A803088021
:10050D0005C333CE33CED8F9FFEDF582EF558224F6
:10051D00FF92B4C2B6D2B60BBB08DDE4FBD2B6C2B5
:10052D00B630B40D7401A803088002C333D8FC4261
:0B053D00010BBB08E8C2B5C2B4AF015F
:010548002290
:10000300E4FDFC7F8E12044FE51975F00A8475F048
:1000130010A4FFAEF0E51975F00A84EF7F8C12048B
:1000230049E51A75F00A8475F010A4FFAEF0E51ADD
:1000330075F00A847C00EF7F88120449E51B75F094
:100043000A8475F010A4FFAEF0E51B75F00A847CFA
:1000530000EF25F0FDEC3EFC7F8612044FE51C7596
:10006300F00A8475F010A4FFAEF0E51C75F00A8465
:100073007C00EF25F0FDEC3EFC7F8412044FE51D70
:1000830075F00A8475F010A4FFAEF0E51D75F00A53
:10009300847C00EF25F0FDEC3EFC7F8212044FE5EB
:1000A3001E75F00A8475F010A4FFAEF0E51E75F01E
:1000B3000A847C00EF25F0FDEC3EFC7F8012044FA8
:1000C300E51F75F00A8475F010A4FFAEF0E51F7507
:1000D300F00A847C00EF25F0FDEC3EFC7F8A1204DD
:0900E3004FE4FDFC7F8F02044F85
:100252007F8C1204FBEFC4540F75F00AA4FEEF5416
:100262000F2EF5197F881204FBEFC4540F75F00AA4
:10027200A4FEEF540F2EF51A7F861204FBEFC4542E
:100282000F75F00AA4FEEF540F2EF51B7F841204A3
:10029200FBEFC4540F75F00AA4FEEF540F2EF51CA9
:1002A2007F821204FBEFC4540F75F00AA4FEEF54D0
:1002B2000F2EF51D7F801204FBEFC4540F75F00A58
:1002C200A4FEEF540F2EF51E7F8A1204FBEFC454D6
:0C02D2000F75F00AA4FEEF540F2EF51F6C
:0102DE0022FD
:030000000202DF1A
:0C02DF00787FE4F6D8FD75812E0203261E
:1000EC00BB010CE58229F582E5833AF583E02250C9
:1000FC0006E92582F8E622BBFE06E92582F8E22213
:0D010C00E58229F582E5833AF583E493222C
:10011900EF8DF0A4A8F0CF8CF0A428CE8DF0A42EFA
:02012900FE22B4
:10012B00BC000BBE0029EF8DF084FFADF022E4CCB8
:10013B00F875F008EF2FFFEE33FEEC33FCEE9DEC81
:10014B00984005FCEE9DFE0FD5F0E9E4CEFD22EDC7
:10015B00F8F5F0EE8420D21CFEADF075F008EF2F11
:10016B00FFED33FD4007985006D5F0F222C398FD02
:05017B000FD5F0EA229F
:10018000C2D5EC30E709B2D5E4C39DFDE49CFCEE9A
:1001900030E715B2D5E4C39FFFE49EFE12012BC3E6
:1001A000E49DFDE49CFC800312012B30D507C3E4E1
:0601B0009FFFE49EFE2209
:1002EB000201B6E493A3F8E493A34003F68001F272
:1002FB0008DFF48029E493A3F85407240CC8C33314
:10030B00C4540F4420C8834004F456800146F6DFE2
:10031B00E4800B0102040810204080900691E47EDB
:10032B00019360BCA3FF543F30E509541FFEE493D7
:10033B00A360010ECF54C025E060A840B8E493A39E
:10034B00FAE493A3F8E493A3C8C582C8CAC583CAC9
:10035B00F0A3C8C582C8CAC583CADFE9DEE780BE81
:01069A00005F
:00000001FF
