:0C0221000A083F065B4F666D7D077F6F8B
:10016C00758901758A18758CFCC28DC28CD2AFD280
:10017C00A9AE12AF137C007D0A1201178E148F15D5
:10018C00AE12AF137C007D0A1201178C168D17AFBF
:09019C00151201DC12009A80D852
:1001DC008C1A8D1BD2A4C2A3D2A274082FF8E6F5F8
:1001EC00807F0A7E00120209D2A4C2A3C2A27408A4
:0D01FC00251BF8E6F5807F0A7E000202094F
:03000B000201A54A
:1001A500C0E0C0D0758A18758CFC0519E519700278
:1001B5000518B4E81DE518B403187518007519007D
:1001C5000513E51370020512643C45127004F5121F
:0701D500F513D0D0D0E03299
:10009A0020B1237F0A7E0012020930B1FD7F0A7E59
:1000AA00001202090513E51370020512643C451299
:1000BA007004F512F51320B0247F0A7E001202099B
:1000CA0030B0FD7F0A7E00120209E5134512700561
:1000DA00F51275133CE51315137002151220B216AA
:1000EA007F0A7E0012020930B2FD7F0A7E001202E8
:1000FA0009E4F512F51320B3137F0A7E00120209F0
:0D010A0030B3FD7F0A7E00120209B28C2284
:04020900EF4E601341
:10020D00751C02751DEFD51DFDD51CFAEF1F70EC89
:01021D001EC2
:03021E0080E92252
:0300000002000EED
:0C000E00787FE4F6D8FD75811D020055D6
:10011700BC000BBE0029EF8DF084FFADF022E4CCCC
:10012700F875F008EF2FFFEE33FEEC33FCEE9DEC95
:10013700984005FCEE9DFE0FD5F0E9E4CEFD22EDDB
:10014700F8F5F0EE8420D21CFEADF075F008EF2F25
:10015700FFED33FD4007985006D5F0F222C398FD16
:050167000FD5F0EA22B3
:10001A0002016CE493A3F8E493A34003F68001F28F
:10002A0008DFF48029E493A3F85407240CC8C333E7
:10003A00C4540F4420C8834004F456800146F6DFB6
:10004A00E4800B0102040810204080900221E47E23
:10005A00019360BCA3FF543F30E509541FFEE493AB
:10006A00A360010ECF54C025E060A840B8E493A372
:10007A00FAE493A3F8E493A3C8C582C8CAC583CA9D
:10008A00F0A3C8C582C8CAC583CADFE9DEE780BE55
:01022D0000D0
:00000001FF
