:0300D900010A0019
:1000BE001200A7AF0A1200D1050A7FE87E031200D4
:0300CE008F80F030
:04008F00EF4E6013BD
:100093007508027509EFD509FDD508FAEF1F70EC55
:0100A3001E3E
:0300A40080E922CE
:1000A70053890F438920758BF3758DF3D28E75981D
:0700B70040438780C2AB2229
:0800D1008F993099FDC29922BC
:03000000020003F8
:0C000300787FE4F6D8FD75810A02004AFF
:10000F000200BEE493A3F8E493A34003F68001F249
:10001F0008DFF48029E493A3F85407240CC8C333F2
:10002F00C4540F4420C8834004F456800146F6DFC1
:10003F00E4800B01020408102040809000D9E47E78
:10004F00019360BCA3FF543F30E509541FFEE493B6
:10005F00A360010ECF54C025E060A840B8E493A37D
:10006F00FAE493A3F8E493A3C8C582C8CAC583CAA8
:10007F00F0A3C8C582C8CAC583CADFE9DEE780BE60
:0100DC000023
:00000001FF
