:0602D600C2A58F80D2A733
:0802DC007F027EEFDEFEDFFC75
:0102E40022F7
:0A02F100C2A61202D6C2A70202DC68
:10025900CFCDCFCECCCE1200427C007D0A12004217
:04026900ED2430FF51
:0A026D00D2A61202D6C2A70202DCDC
:1002AC00AE07BE0104ED148006BE0209ED243F44E6
:0602BC0080FF1202F12296
:1002C2007F381202F17F0C1202F17F061202F17FD7
:0402D200010202F132
:0A02FB00AC031202ACAF0402026D66
:060236008B088A09890A09
:10023C001202ACE4FDAB08AA09A90A8D82758300F1
:0C024C00120003FF600612026D0D80E935
:010258002283
:0C0203007F0AEA24FFFDE434FFFC7E00CB
:08020F008E0D8F0E8C0F8D1077
:100217007F017E00E4FBEBC39510E50F6480F87463
:0E0227008098500AAC0DAD0E1200300B80E82E
:0102350022A6
:040277008A0A8B0B59
:10027B001202ACAA0CEAD39400400D120203AC0A92
:08028B00AD0B1202591A80EDBF
:010293002248
:100158001202ACC3EA64809480400B7F2B12026DBC
:100168008A168B17800E7F2D12026DC3E49BF5173C
:10017800E49AF516AA15EAD39400400D120203ACCE
:0901880016AD171202591A80EDA0
:01019100224B
:040192008A1A8B1B1F
:100196001202ACAA1CEAD3940040297F1012020571
:1001A600AC1AAD1BCFCDCFCECCCE120042EF540F42
:1001B600FEC3940AEE5004243080022437FF120254
:0401C6006D1A80D15D
:0101CA002212
:0401CB008A1F8B20DC
:1001CF001202ACAA21EAD394004028EA24FFFDE4EE
:1001DF0034FFFC7F027E0012020FAC1FAD20CFCD8B
:1001EF00CFCECCCE120042EF54012430FF12026D5D
:0301FF001A80D291
:0102020022D9
:04029400EF4E6013B6
:100298007508027509EFD509FDD508FAEF1F70EC4E
:0102A8001E37
:0302A90080E922C7
:0403050041444A0025
:100097001202C27BFF7A0379057D017F01120236C6
:1000A7007F9C1201038E228F23750C04AB23AA2297
:1000B7007D017F021202777F0A7E001202947FDCA5
:1000C7001201038E228F23750C04AB23AA227D060F
:1000D7007F021202777F0A7E001202947FEC1201E0
:1000E700038E228F23750C04AB23AA227D0B7F027C
:0C00F7001202777F0A7E0012029480A49F
:02010300AD0746
:10010500C2B6C2B5E4FB74807E00A803088006CEA3
:10011500A2E713CE13D8F8FFEDF582EF558224FF41
:1001250092B4D2B6C2B60BBB08DCE4FBD2B6C2B6FB
:1001350030B714E47E80A803088005CEC313CE1320
:10014500D8F94209EE42080BBB10E1D2B5E508FF2C
:020155007E002A
:010157002285
:030000000202E514
:0C02E500787FE4F6D8FD758123020097B5
:10000300BB010CE58229F582E5833AF583E02250B2
:1000130006E92582F8E622BBFE06E92582F8E222FC
:0D002300E58229F582E5833AF583E4932216
:10003000EF8DF0A4A8F0CF8CF0A428CE8DF0A42EE4
:02004000FE229E
:10004200BC000BBE0029EF8DF084FFADF022E4CCA2
:10005200F875F008EF2FFFEE33FEEC33FCEE9DEC6B
:10006200984005FCEE9DFE0FD5F0E9E4CEFD22EDB1
:10007200F8F5F0EE8420D21CFEADF075F008EF2FFB
:10008200FFED33FD4007985006D5F0F222C398FDEC
:050092000FD5F0EA2289
:00000001FF
