:100AAF00543A0054483A00544C3A004F563A4800D2
:0A0ABF004F563A4C00202020200082
:10049700120B517FE87E03120AE2E4FF1209368F3E
:1004A700137F011209368F0AD3E513648094FD5038
:1004B70014E50A6480F8E5136480984008E50A6447
:1004C7008094495006750A0F751319120B3D7BFF6F
:1004D7007A0A79AF7D017F0112088A7BFF7A0A7950
:1004E700B27D017F0212088A7BFF7A0A79B67D09FD
:1004F7007F0212088AE513FB3395E0FA7519037D2D
:10050700047F021206B2E50AFB3395E0FA75190378
:100517007D0C7F021206B2120AFA120B898F14128F
:100527000B511209668F128E118D108C0FE4FFFE8E
:10053700FDFCAB12AA11A910A80F1201B4501E7B23
:100547002D7D037F011209DFAF12AE11AD10AC0F85
:100557001202218F0E8E0D8D0C8C0B80157B2B7D3F
:10056700037F011209DF85120E85110D85100C8599
:100577000F0BAF0EAE0DAD0CAC0B120270AB07AA92
:10058700067519037D047F0112083D7B2E7D077FC9
:10059700011209DFE4FFFE7DC87C42AB0EAA0DA95C
:1005A7000CA80B12000E120270E47B64FAF9F81221
:1005B70003F77519027D087F0112083DE5147003E2
:1005C700020662B4010E0513D3E513648094FD405F
:1005D7000375137DE514B402111513D3E50A64807E
:1005E700F8E51364809850020513E514B403110568
:1005F7000AD3E50A6480F8E5136480985002150A67
:10060700E514B4040E150AC3E50A6480944950033F
:10061700750AC9E513FB3395E0FA7519037D047F65
:10062700021206B2E50AFB3395E0FA7519037D0C51
:100637007F021206B2E513FD3395E0FCE4FF1209D1
:10064700BB7F057E00120AE2E50AFD3395E0FC7FD9
:10065700011209BB7F057E00120AE2AC13EC1202FD
:100667003CAB12AA11A910A80F1201B4600A4008E6
:100677007BFF7A0A79BA8019AC0AEC12023CAB12FA
:10068700AA11A910A80F1201B450107BFF7A0A799A
:10069700BF7D0D7F0112088A0205217BFF7A0A7947
:0B06A700C47D0D7F0112088A020521AE
:03000B0002079059
:10079000C0E0C0F0C083C082C0D075D000C000C02F
:0D07A00001C002C003C004C005C006C007B0
:1007AD00758A18758CFC0509E50970020508C39456
:1007BD0014E508940040097508007509001208C970
:1007CD00D007D006D005D004D003D002D001D00080
:0B07DD00D0D0D082D083D0F0D0E0322A
:1009BB008F158C168D17120B807FA0120992120BBC
:1009CB005EAF15120992120B5EAF17120992120B42
:0409DB005E020003B5
:020936008F151B
:10093800120B807FA0120992120B5EAF151209925A
:10094800120B5E120B807FA1120992120B5E120A23
:0D095800208F167F01120B76120003AF16E0
:01096500226F
:040AE200EF4E601360
:100AE600751B02751CEFD51CFDD51BFAEF1F70ECAC
:010AF6001EE1
:030AF70080E92271
:090B8000D2A1D2A0C2A0C2A122A0
:07000300C2A0D2A1D2A0228D
:02099200AD07AF
:10099400E4FB74807E00A803088006CEA2E713CE91
:1009A40013D8F8FFEDF582EF558224FF92A0D2A16F
:0609B400C2A10BBB08DC30
:0109BA00221A
:100A2000D2A0E4FED2A130A00D7480A806088002F6
:0C0A3000C313D8FC4207C2A10EBE08E8A8
:010A3C002297
:0A0B7600EF24FF92A0D2A1C2A12239
:0B0B5E00D2A0D2A1A2A0E433FFC2A1EC
:010B69002269
:050A3D00243F4480FF8E
:100A4200C2A6C2A58F80D2A77F017E00120AE2C28F
:080A5200A77F017E00020AE209
:040A7700ED2430FF3B
:100A7B00D2A6C2A58F80D2A77F017E00120AE2C246
:080A8B00A77F017E00020AE2D0
:100B3D007F38120A427F0C120A427F06120A427F48
:040B4D0001020A4255
:1009DF008F158D168B17E515B40109E51614448094
:1009EF00FF120A42E515B40205E516120A3DAF17CC
:0309FF00020A7B6E
:0A088A008F158D168B178A18891937
:10089400E515B40109E516144480FF120A42E51572
:1008A400B40205E516120A3DE4F51AAB17AA18A915
:1008B40019851A827583001202F1FF6007120A7B00
:0408C400051A80E7AA
:0108C800220D
:0D090200E5247F1024FFFDE434FFFC7E009F
:08090F008E1B8F1C8C1D8D1E38
:100917007F017E00E4FBEBC3951EE51D6480F87440
:0E0927008098500AAC1BAD1C12031E0B80E81A
:01093500229F
:08083D008F158D168A178B1828
:10084500E515B40109E516144480FF120A42E515C1
:10085500B40205E516120A3D85191AE51AD3940066
:100865004022E51A7F0A120906AC17AD18CFCDCF85
:10087500CECCCE1203307C007D0A120330120A77EB
:04088500151A80D7E9
:01088900224C
:0806B2008F158D168A178B18B5
:1006BA00E515B40109E516144480FF120A42E5154E
:1006CA00B40205E516120A3DC3E51764809480401A
:1006DA00077F2B120A7B80107F2D120A7BC3E495B9
:1006EA0018F518E49517F51785191AE51AD3940021
:1006FA00402BE51A24FFFDE434FFFC7F0A7E00123A
:10070A00090FAC17AD18CFCDCFCECCCE1203857C56
:0D071A00007D0A120385120A77151A80CEA1
:0107270022AF
:080728008F1F8D208A218B2216
:10073000E51FB40109E520144480FF120A42E51FB9
:10074000B40205E520120A3D852324E524D3940054
:10075000403D120902AC21AD22CFCDCFCECCCE127E
:100760000330EF540FF525C3940A5017120902AC59
:1007700021AD22CFCDCFCECCCE120330EF540F24FB
:0F078000308004E5252437FF120A7B152480BC46
:01078F002247
:0807E8008F268D278A288B293A
:1007F000E526B40109E527144480FF120A42E526E4
:10080000B40205E527120A3D852A2BE52BD3940077
:10081000402AE52B24FFFDE434FFFC7F027E00121A
:10082000090FAC28AD29CFCDCFCECCCE120330EFFF
:0C08300054012430FF120A7B152B80CFEE
:01083C002299
:100A0200C2AFD2B7C2B77FF7DFFED2B77F20DFFE19
:0D0A1200A2B7E433FE7FF7DFFED2AFAF06E0
:010A1F0022B4
:100B1100C2AFC2B77E04DEFEEF24FF92B77E18DEBD
:050B2100FED2B7D2AFC7
:010B260022AC
:100A9300C2AFC2B77F02DFFED2B77F02DFFEA2B7CB
:0B0AA300E433FE7F18DFFED2AFAF0689
:010AAE002225
:020AC900AD0777
:100ACB00E4FC7401A804088002C333D8FC5DFF1258
:060ADB000B110CBC08EC3D
:010AE10022F2
:100A5A00E4FDFC120A93EF600D7401A804088002F9
:0C0A6A00C333D8FC42050CBC08E9AF0502
:010A7600225D
:0D0B5100120A027FCC120AC97F44020AC9B1
:10096600120A027FCC120AC97FBE120AC9120A5A9B
:100976008F15120A5AEFFEE515FFFDAC06EC1202C2
:0B09860037E4FBFA798078411201177A
:010991002243
:050B8900AF2EE4F52E83
:010B8E002244
:100B2700E4FF20B1010F20B0027F0220B2027F0351
:050B370020B3027F0461
:010B3C002296
:1008C900852C2D120B278F2CE52DB40107E52C70F3
:1008D90003752E01E52DB40207E52C7003752E0270
:1008E900E52DB40307E52C7003752E03E52DB4043B
:0808F90007E52C7003752E04C5
:0109010022D3
:100AFA005389F0438901758A18758CFCC28DD28C92
:070B0A00D2A9D2AFC2B9224B
:10000E00EC4D6011E8497017ED33EC3304600DE4EC
:10001E00FCFFFEFD22E933E8330470F80202DC1225
:10002E0002A758046009E4CC248150062850090226
:10003E0002E62840030202E3C0E0EB4A7044B980B6
:10004E0006D0E0FB0202D2EF4E701CBD8008EBFF23
:10005E00EAFEE9FD80EBE98DF0A4FEE5F00200F783
:10006E00E9CDF9EAFEEBFFEF89F0A4FCE5F0CE89CD
:10007E00F0A42EFFE435F0CD89F0A42DFEE435F08A
:10008E008067EF4E7005BD80D780C3EF8BF0A4ACB8
:10009E00F0EE8BF0A42CFCE435F0F8EF8AF0A42CF3
:1000AE00E5F038FCE433CB8DF0A42CFCE5F03BF806
:1000BE00EE8AF0A42CFCE5F038F8E433CF89F0A4F6
:1000CE002CFCE5F038CF3400CE89F0A42FFFE5F0FC
:1000DE003EFEE433C98DF0A42EFEE5F039CD8AF054
:1000EE00A42FFFE5F03EFEE43DFD33D0E0FB5007CC
:1000FE000BBB000F0202E6EC2CFCEF33FFEE33FEDF
:06010E00ED33FD0202BE0C
:100114000202E6EC5D046005E8590470030202DCA7
:100124001202A7580460F6EC4860F2EC7004FDFE7D
:10013400FF22C860DB2481C85009C39860025006BE
:100144000202E39850CAF582E9294B4A7005AB8252
:100154000202D275F0007C1A7880C3EF9BEE9AED10
:1001640099400DC3EF9BFFEE9AFEED99FDE842F036
:10017400DC23ACF0D0E0FFD0E0FED0E0FDAB822089
:10018400E7101BEB60BAEC2CFCEF33FFEE33FEED13
:1001940033FD0202BEE803F830E705C0F075F00055
:1001A400EF2FFFEE33FEED33FD40B830E7C280AAF7
:1001B40074F8CC6480CCC86480C8F582046043C3FE
:1001C400EB9FF5F0EA9E42F0E99D42F0E89C45F091
:1001D40060305018E5825FFFE582F42B5582FB50B6
:1001E400210ABA001D09B90019088016E5825BFBD3
:1001F400E582F42F5582FF50090EBE00050DBD00A7
:10020400010CC3EB9FF5F0EA9E42F0E99D42F0E851
:0D0214009C45F06007CC4820E701B3EC22C8
:10022100ED33EC33600A047003BD8004ECB2E7FCEB
:0102310022AA
:1002320075F020800E75F010800575F0087D007E47
:10024200007F003392D530D503120489EC3340107D
:10025200EF33FFEE33FEED33FDEC33FCD5F0ED2250
:0E026200E5F0247EA2D513CC92E7CDCEFF228C
:10027000EDD2E7CD33EC3392D524814006E4FFFE86
:10028000FDFC22FCE4CFCECDCC24E0501174FF80E5
:10029000EDC3CC13CCCD13CDCE13CECF13CF047082
:0702A000F030D5DE020489F5
:1002A700E9D2E7C933E833F892D5EDD2E7CD33EC9D
:0702B70033FC5002B2D52216
:1002BE00EC30E7100FBF000C0EBE00080DBD0004A1
:1002CE000BEB6014A2D5EB13FCED92E7FD2274FF4D
:1002DE00FCFDFEFF22E480F8A2D574FF13FC7D80A6
:0302EE00E480EFBA
:03000000020B6A86
:0C0B6A00787FE4F6D8FD75812E02049718
:1002F100BB010CE58229F582E5833AF583E02250C2
:1003010006E92582F8E622BBFE06E92582F8E2220B
:0D031100E58229F582E5833AF583E4932225
:10031E00EF8DF0A4A8F0CF8CF0A428CE8DF0A42EF3
:02032E00FE22AD
:10033000BC000BBE0029EF8DF084FFADF022E4CCB1
:10034000F875F008EF2FFFEE33FEEC33FCEE9DEC7A
:10035000984005FCEE9DFE0FD5F0E9E4CEFD22EDC0
:10036000F8F5F0EE8420D21CFEADF075F008EF2F0A
:10037000FFED33FD4007985006D5F0F222C398FDFB
:050380000FD5F0EA2298
:10038500C2D5EC30E709B2D5E4C39DFDE49CFCEE93
:1003950030E715B2D5E4C39FFFE49EFE120330C3D8
:1003A500E49DFDE49CFC800312033030D507C3E4D3
:0603B5009FFFE49EFE2202
:1003BB0075F008758200EF2FFFEE33FECD33CDCCF9
:1003CB0033CCC58233C5829BED9AEC99E58298407C
:1003DB000CF582EE9BFEED9AFDEC99FC0FD5F0D659
:1003EB00E4CEFBE4CDFAE4CCF9A88222B800C1B983
:1003FB000059BA002DEC8BF084CFCECDFCE5F0CBC1
:10040B00F97818EF2FFFEE33FEED33FDEC33FCEBF9
:10041B0033FB10D703994004EB99FB0FD8E5E4F9B4
:10042B00FA227818EF2FFFEE33FEED33FDEC33FCA1
:10043B00C933C910D7059BE99A4007EC9BFCE99A95
:10044B00F90FD8E0E4C9FAE4CCFB2275F010EF2FDA
:10045B00FFEE33FEED33FDCC33CCC833C810D707DA
:10046B009BEC9AE899400AED9BFDEC9AFCE899F815
:0E047B000FD5F0DAE4CDFBE4CCFAE4C8F922A8
:0E048900C3E49FFFE49EFEE49DFDE49CFC2284
:00000001FF
