:10061E005772697465204F6B002020202020202007
:0B062E0020200052656164204F6B002B
:10018C00120651750F05AB0AAA097D017F011204F5
:10019C00681200038F08E508B40115050AE50A701A
:1001AC00020509750F05FBAA097D017F0112046880
:1001BC00E508B40216E50A150A70021509750F0553
:1001CC00AB0AAA097D017F01120468E5086403707B
:1001DC0040FCAD0AFF1205817F057E00120639E551
:1001EC0009FD7C007F011205817F057E0012063916
:1001FC007BFF7A06791E7D017F021204B57FE87EB3
:10020C00031206397BFF7A0679277D017F021204DF
:10021C00B5E5086404600302019DFF120528750909
:10022C00008F0A7F01120528EFFEEE4209750F05BB
:10023C00AB0AAA097D017F011204687BFF7A06795B
:10024C00317D017F021204B57FE87E031206397BF3
:0F025C00FF7A0679277D017F021204B502019D0A
:04063900EF4E60130D
:10063D007511027512EFD512FDD511FAEF1F70EC81
:01064D001E8E
:03064E0080E9221E
:100581008F0B8C0C8D0D1206877FA0120558120659
:1005910065AF0B120558120665AF0D12055812060C
:0405A1006502069059
:020528008F0B37
:10052A001206877FA0120558120665AF0B120558EE
:10053A001206651206877FA1120558120665120572
:0D054A00C88F0C7F0112067D120690AF0CC9
:010557002281
:09068700D2A1D2A0C2A0C2A1229E
:07069000C2A0D2A1D2A022FA
:02055800AD07ED
:10055A00E4FB74807E00A803088006CEA2E713CECF
:10056A0013D8F8FFEDF582EF558224FF92A0D2A1AD
:06057A00C2A10BBB08DC6E
:010580002258
:1005C800D2A0E4FED2A130A00D7480A80608800253
:0C05D800C313D8FC4207C2A10EBE08E805
:0105E40022F4
:0A067D00EF24FF92A0D2A1C2A12237
:0B066500D2A0D2A1A2A0E433FFC2A1EA
:010670002267
:0505E500243F4480FFEB
:1005EA00C2A6C2A58F80D2A77F017E00120639C299
:0805FA00A77F017E0002063913
:04060200ED2430FFB4
:10060600D2A6C2A58F80D2A77F017E00120639C26C
:08061600A77F017E00020639F6
:100651007F381205EA7F0C1205EA7F061205EA7F50
:04066100010205EAA3
:1005A5008F288D298B2AE528B40109E52914448073
:1005B500FF1205EAE528B40205E5291205E5AF2A8B
:0305C50002060625
:0A04B5008F0B8D0C8B0D8A0E890F42
:1004BF00E50BB40109E50C144480FF1205EAE50BC6
:1004CF00B40205E50C1205E5E4F510AB0DAA0EA973
:1004DF000F85108275830012026BFF6007120606EC
:0404EF00051080E78D
:0104F30022E6
:0D04F400E51A7F1024FFFDE434FFFC7E00BC
:080501008E118F128C138D1472
:100509007F017E00E4FBEBC39514E5136480F87466
:0E0519008098500AAC11AD121202980B80E8C7
:0105270022B1
:080468008F0B8D0C8A0D8B0E29
:10047000E50BB40109E50C144480FF1205EAE50B15
:10048000B40205E50C1205E5850F10E510D39400C4
:100490004022E5107F0A1204F8AC0DAD0ECFCDCF8F
:1004A000CECCCE1202AA7C007D0A1202AA1206024B
:0404B000151080D7CC
:0104B4002225
:080335008F1C8D1D8A1E8B1F19
:10033D00E51CB40109E51D144480FF1205EAE51C16
:10034D00B40205E51D1205E5C3E51E6480948040E9
:10035D00077F2B12060680107F2D120606C3E4952B
:10036D001FF51FE4951EF51E852021E521D3940070
:10037D00402BE52124FFFDE434FFFC7F0A7E0012B3
:10038D000501AC1EAD1FCFCDCFCECCCE1202FF7C62
:0D039D00007D0A1202FF120602152180CE1B
:0103AA002230
:0803AB008F158D168A178B18BF
:1003B300E515B40109E516144480FF1205EAE515B5
:1003C300B40205E5161205E585191AE51AD394005A
:1003D300403D1204F4AC17AD18CFCDCFCECCCE1226
:1003E30002AAEF540FF51BC3940A50171204F4AC7E
:1003F30017AD18CFCDCFCECCCE1202AAEF540F2417
:0F040300308004E51B2437FF120606151A80BC53
:0104120022C7
:080413008F228D238A248B2522
:10041B00E522B40109E523144480FF1205EAE52225
:10042B00B40205E5231205E5852627E527D39400BD
:10043B00402AE52724FFFDE434FFFC7F027E0012F7
:10044B000501AC24AD25CFCDCFCECCCE1202AAEF79
:0C045B0054012430FF120606152780CF44
:010467002272
:10000300E4F50B7590FFC2932097137F14FE12063D
:10001300393097FD7F147E00120639750B01209647
:10002300147F147E001206393096FD7F147E001271
:100033000639750B052095147F147E00120639309E
:1000430095FD7F147E00120639750B092094147FE9
:10005300147E001206393094FD7F147E0012063997
:10006300750B0D7590FFC2922097147F147E0012BA
:1000730006393097FD7F147E00120639750B022076
:1000830096147F147E001206393096FD7F147E008D
:10009300120639750B062095147F147E001206395B
:1000A3003095FD7F147E00120639750B0A209414D7
:1000B3007F147E001206393094FD7F147E001206F1
:1000C30039750B0E7590FFC2912097147F147E0033
:1000D3001206393097FD7F147E00120639750B0323
:1000E3002096147F147E001206393096FD7F147E0D
:1000F30000120639750B072095147F147E00120633
:10010300393095FD7F147E00120639750B0B209450
:10011300147F147E001206393094FD7F147E001282
:100123000639750B0F7590FFC2902097147F147ECC
:10013300001206393097FD7F147E00120639750BC5
:10014300042096147F147E001206393096FD7F1426
:100153007E00120639750B082095147F147E001259
:1001630006393095FD7F147E00120639750B0C207D
:1001730094147F147E001206393094FD7F147E00A0
:08018300120639750B10AF0BD9
:01018B002251
:0300000002067184
:0C067100787FE4F6D8FD75812A02018C28
:10026B00BB010CE58229F582E5833AF583E0225048
:10027B0006E92582F8E622BBFE06E92582F8E22292
:0D028B00E58229F582E5833AF583E49322AC
:10029800EF8DF0A4A8F0CF8CF0A428CE8DF0A42E7A
:0202A800FE2234
:1002AA00BC000BBE0029EF8DF084FFADF022E4CC38
:1002BA00F875F008EF2FFFEE33FEEC33FCEE9DEC01
:1002CA00984005FCEE9DFE0FD5F0E9E4CEFD22ED47
:1002DA00F8F5F0EE8420D21CFEADF075F008EF2F91
:1002EA00FFED33FD4007985006D5F0F222C398FD82
:0502FA000FD5F0EA221F
:1002FF00C2D5EC30E709B2D5E4C39DFDE49CFCEE1A
:10030F0030E715B2D5E4C39FFFE49EFE1202AAC3E5
:10031F00E49DFDE49CFC80031202AA30D507C3E4E0
:06032F009FFFE49EFE2288
:00000001FF
