:10014A007B647A0020A0087D017C007F008004E4A3
:10015A00FDFCFF7E081200037F507EC312016B80F4
:01016A00DFB5
:04018B007F02DFFE12
:01018F00224D
:10016B00AD07AC06ED1DAE0470011C4E600512010F
:04017B008B80F12262
:080003008E088F098A0A8B0B9D
:10000B00E4F50CF50DED4C60030200ADE5091509A7
:10001B00AE08700215084E7003020141E50C7062C8
:10002B00E50DB40800505B900039F82828730200E6
:10003B005102005702005D02006702006D0200775B
:10004B00020081020085D290C291800AD290D29197
:10005B008004C290D291C292C2938026C290D29158
:10006B008004C290C291D292C2938016C290C29168
:10007B00D292D293800CC2908002D290C291C29243
:10008B00D293E50D6407450C7006F50CF50D800851
:10009B00050DE50D7002050CAF0BAE0A12016B02DC
:1000AB000017E5091509AE08700215084E7003021A
:1000BB000141E50C7060E50DB4080050599000CF7C
:1000CB00F82828730200E70200EB0200F50200FF9C
:1000DB0002010502010F020113020119D2908002E5
:1000EB00C290C291C292D293802CC290C291D292F2
:1000FB00D2938022C290C2918004C290D291D292AC
:10010B00C2938012C2908002D290D2918004D2907E
:10011B00C291C292C293E50D6407450C7006F50CB3
:10012B00F50D8008050DE50D7002050CAF0BAE0A41
:0E013B0012016B0200ADC290C291C292C2933B
:010149002293
:0300000002017F7B
:0C017F00787FE4F6D8FD75810D02014A7E
:00000001FF
