:10014F000000000000000000FF0808FF000E15155A
:10015F000D0000FF00FF0000003C24243C000000C5
:10016F00000000FD00000000000000000000000083
:0300F9001201D21F
:1000FC00780B7C007D007BFF7A01794F7E007F308E
:10010C001200D3E4F508E5082509240BF8E6FD7C7C
:10011C0000AF081201977F017E0012017F7580FFEE
:10012C000508E508C3940840DD050AE50AD39405E3
:10013C0040BEE4F50A0509E509D3942840B2E4F57C
:01014C0009A9
:02014D0080AD83
:04017F00EF4E6013CC
:10018300753B02753CEFD53CFDD53BFAEF1F70EC98
:010193001E4D
:0301940080E922DD
:1001AF00E4FEEF3392B4D2B6C2B6EF25E0FF0EBE37
:0601BF0008F0D2B5C2B544
:0101C5002217
:10019700AB07AF051201AFAF037480A80708800251
:0801A700C313D8FCF4F580221B
:0501D200C2B6C2B52217
:030000000201C634
:0C01C600787FE4F6D8FD75813C0200F95A
:10000300E709F608DFFA8046E709F208DFFA803EDF
:1000130088828C83E709F0A3DFFA8032E309F608CC
:10002300DFFA8078E309F208DFFA807088828C8334
:10003300E309F0A3DFFA806489828A83E0A3F608E8
:10004300DFFA805889828A83E0A3F208DFFA804CC2
:1000530080D280FA80C680D4806980F28033801099
:1000630080A680EA809A80A880DA80E280CA803302
:1000730089828A83ECFAE493A3C8C582C8CCC5837A
:10008300CCF0A3C8C582C8CCC583CCDFE9DEE7804A
:100093000D89828A83E493A3F608DFF9ECFAA9F0C9
:1000A300EDFB2289828A83ECFAE0A3C8C582C8CC1F
:1000B300C583CCF0A3C8C582C8CCC583CCDFEADE38
:1000C300E880DB89828A83E493A3F208DFF980CC9A
:1000D30088F0EF60010E4E60C388F0ED2402B40493
:1000E3000050B9F582EB2402B4040050AF2323453A
:0600F3008223900053730C
:00000001FF
