:0601520001090001080094
:0800030012000E12013780FE0D
:03000B0002010BE4
:10010B00C0E0C0D0C28C758A33758CFFE509D395DE
:10011B00085004D2808002C2800509E509C39428E7
:0C012B004003750900D28CD0D0D0E03227
:030023000200B226
:1000B200C0E0C0D030984D859990E590B4010375A9
:1000C2000800E590B40203750801E590B4030375D6
:1000D2000802E590B40403750803E590B4050375BE
:1000E2000804E590B40603750805E590B4070375A6
:1000F2000806E590B40803750807E590B40903758E
:090102000808C298D0D0D0E03208
:10000E005389F0438901758A33758CFFD2A9D28C3E
:03001E00D2AF223C
:1001370043878075985053890F438920758BFA75CB
:0B0147008DFAC2ABD28ED2AFD2AC2238
:03000000020026D5
:0C002600787FE4F6D8FD75810902006DBA
:10003200020003E493A3F8E493A34003F68001F2E1
:1000420008DFF48029E493A3F85407240CC8C333CF
:10005200C4540F4420C8834004F456800146F6DF9E
:10006200E4800B0102040810204080900152E47EDB
:10007200019360BCA3FF543F30E509541FFEE49393
:10008200A360010ECF54C025E060A840B8E493A35A
:10009200FAE493A3F8E493A3C8C582C8CAC583CA85
:1000A200F0A3C8C582C8CAC583CADFE9DEE780BE3D
:0101580000A6
:00000001FF
