:080189003C42A98585A9423C16
:10016600E4FEEF3392B4D2B6C2B6EF25E0FF0EBE80
:0601760008F0D2B5C2B58D
:01017C002260
:10013600AB07AF05120166AF037480A807088002FB
:08014600C313D8FCF4F580227C
:0400F900C2B6C2B514
:1000FD0078087C007D007BFF7A0179897E007F087E
:10010D001200D3E4F51074082510F8E6FD7C00AF5D
:10011D00101201367F017E0012014E7580FF051011
:09012D00E510C3940840DF80C70F
:04014E00EF4E6013FD
:100152007511027512EFD512FDD511FAEF1F70EC71
:010162001E7E
:0301630080E9220E
:0300000002017D7D
:0C017D00787FE4F6D8FD7581120200F9CD
:10000300E709F608DFFA8046E709F208DFFA803EDF
:1000130088828C83E709F0A3DFFA8032E309F608CC
:10002300DFFA8078E309F208DFFA807088828C8334
:10003300E309F0A3DFFA806489828A83E0A3F608E8
:10004300DFFA805889828A83E0A3F208DFFA804CC2
:1000530080D280FA80C680D4806980F28033801099
:1000630080A680EA809A80A880DA80E280CA803302
:1000730089828A83ECFAE493A3C8C582C8CCC5837A
:10008300CCF0A3C8C582C8CCC583CCDFE9DEE7804A
:100093000D89828A83E493A3F608DFF9ECFAA9F0C9
:1000A300EDFB2289828A83ECFAE0A3C8C582C8CC1F
:1000B300C583CCF0A3C8C582C8CCC583CCDFEADE38
:1000C300E880DB89828A83E493A3F208DFF980CC9A
:1000D30088F0EF60010E4E60C388F0ED2402B40493
:1000E3000050B9F582EB2402B4040050AF2323453A
:0600F3008223900053730C
:00000001FF
